{
  "_format": "hh-sol-artifact-1",
  "contractName": "MarketFactory",
  "sourceName": "contracts/MarketFactory.sol",
  "abi": [
    {
      "inputs": [
        {
          "internalType": "address",
          "name": "_usdcToken",
          "type": "address"
        }
      ],
      "stateMutability": "nonpayable",
      "type": "constructor"
    },
    {
      "anonymous": false,
      "inputs": [
        {
          "indexed": true,
          "internalType": "address",
          "name": "marketAddress",
          "type": "address"
        },
        {
          "indexed": true,
          "internalType": "address",
          "name": "creator",
          "type": "address"
        },
        {
          "indexed": false,
          "internalType": "address",
          "name": "friend1",
          "type": "address"
        },
        {
          "indexed": false,
          "internalType": "address",
          "name": "friend2",
          "type": "address"
        },
        {
          "indexed": false,
          "internalType": "string",
          "name": "title",
          "type": "string"
        },
        {
          "indexed": false,
          "internalType": "uint256",
          "name": "timestamp",
          "type": "uint256"
        }
      ],
      "name": "MarketCreated",
      "type": "event"
    },
    {
      "inputs": [
        {
          "internalType": "uint256",
          "name": "",
          "type": "uint256"
        }
      ],
      "name": "allMarkets",
      "outputs": [
        {
          "internalType": "address",
          "name": "",
          "type": "address"
        }
      ],
      "stateMutability": "view",
      "type": "function"
    },
    {
      "inputs": [
        {
          "internalType": "address",
          "name": "friend1",
          "type": "address"
        },
        {
          "internalType": "address",
          "name": "friend2",
          "type": "address"
        },
        {
          "internalType": "string",
          "name": "title",
          "type": "string"
        },
        {
          "internalType": "uint256",
          "name": "resolutionTime",
          "type": "uint256"
        }
      ],
      "name": "createMarket",
      "outputs": [
        {
          "internalType": "address",
          "name": "",
          "type": "address"
        }
      ],
      "stateMutability": "nonpayable",
      "type": "function"
    },
    {
      "inputs": [
        {
          "internalType": "address",
          "name": "friend1",
          "type": "address"
        },
        {
          "internalType": "address",
          "name": "friend2",
          "type": "address"
        },
        {
          "internalType": "string",
          "name": "title",
          "type": "string"
        },
        {
          "internalType": "uint256",
          "name": "resolutionTime",
          "type": "uint256"
        },
        {
          "internalType": "address[]",
          "name": "eligibleBettors",
          "type": "address[]"
        }
      ],
      "name": "createMarketWithBettors",
      "outputs": [
        {
          "internalType": "address",
          "name": "",
          "type": "address"
        }
      ],
      "stateMutability": "nonpayable",
      "type": "function"
    },
    {
      "inputs": [],
      "name": "getMarketCount",
      "outputs": [
        {
          "internalType": "uint256",
          "name": "",
          "type": "uint256"
        }
      ],
      "stateMutability": "view",
      "type": "function"
    },
    {
      "inputs": [
        {
          "internalType": "address",
          "name": "friend1",
          "type": "address"
        },
        {
          "internalType": "address",
          "name": "friend2",
          "type": "address"
        }
      ],
      "name": "getMarketForPair",
      "outputs": [
        {
          "internalType": "address",
          "name": "",
          "type": "address"
        }
      ],
      "stateMutability": "view",
      "type": "function"
    },
    {
      "inputs": [
        {
          "internalType": "address",
          "name": "creator",
          "type": "address"
        }
      ],
      "name": "getMarketsByCreator",
      "outputs": [
        {
          "internalType": "address[]",
          "name": "",
          "type": "address[]"
        }
      ],
      "stateMutability": "view",
      "type": "function"
    },
    {
      "inputs": [
        {
          "internalType": "bytes32",
          "name": "",
          "type": "bytes32"
        }
      ],
      "name": "marketByPair",
      "outputs": [
        {
          "internalType": "address",
          "name": "",
          "type": "address"
        }
      ],
      "stateMutability": "view",
      "type": "function"
    },
    {
      "inputs": [
        {
          "internalType": "address",
          "name": "",
          "type": "address"
        },
        {
          "internalType": "uint256",
          "name": "",
          "type": "uint256"
        }
      ],
      "name": "marketsByCreator",
      "outputs": [
        {
          "internalType": "address",
          "name": "",
          "type": "address"
        }
      ],
      "stateMutability": "view",
      "type": "function"
    },
    {
      "inputs": [],
      "name": "usdcToken",
      "outputs": [
        {
          "internalType": "address",
          "name": "",
          "type": "address"
        }
      ],
      "stateMutability": "view",
      "type": "function"
    }
  ],
  "bytecode": "0x60a060405234801561001057600080fd5b506040516128ab3803806128ab83398101604081905261002f9161009a565b6001600160a01b0381166100895760405162461bcd60e51b815260206004820152601460248201527f496e76616c696420555344432061646472657373000000000000000000000000604482015260640160405180910390fd5b6001600160a01b03166080526100ca565b6000602082840312156100ac57600080fd5b81516001600160a01b03811681146100c357600080fd5b9392505050565b6080516127c06100eb6000396000818160aa01526105f001526127c06000f3fe60806040523480156200001157600080fd5b50600436106200009f5760003560e01c80638dec6e35116200006e5780638dec6e35146200012e578063a56774e0146200015a578063ad14b9031462000171578063e99c80bd1462000188578063fd69f3c214620001ae57600080fd5b806311eac85514620000a457806313ba3d1414620000e957806352d84d1e146200010057806353b372841462000117575b600080fd5b620000cc7f000000000000000000000000000000000000000000000000000000000000000081565b6040516001600160a01b0390911681526020015b60405180910390f35b620000cc620000fa36600462000752565b620001c0565b620000cc620001113660046200077f565b620001f9565b620000cc6200012836600462000799565b62000224565b620000cc6200013f3660046200077f565b6002602052600090815260409020546001600160a01b031681565b620000cc6200016b36600462000892565b620002b7565b620000cc6200018236600462000900565b620002d0565b6200019f6200019936600462000a13565b6200035c565b604051620000e0919062000a38565b600054604051908152602001620000e0565b60016020528160005260406000208181548110620001dd57600080fd5b6000918252602090912001546001600160a01b03169150829050565b600081815481106200020a57600080fd5b6000918252602090912001546001600160a01b0316905081565b6000806000836001600160a01b0316856001600160a01b0316106200024b5783856200024e565b84845b6040516bffffffffffffffffffffffff19606084811b8216602084015283901b166034820152919350915060009060480160408051808303601f190181529181528151602092830120600090815260029092529020546001600160a01b03169695505050505050565b6000620002c785858585620003d4565b95945050505050565b600080620002e187878787620003d4565b8351909150819015620003515760405163b1bb167160e01b81526001600160a01b0382169063b1bb1671906200031c90879060040162000a38565b600060405180830381600087803b1580156200033757600080fd5b505af11580156200034c573d6000803e3d6000fd5b505050505b509695505050505050565b6001600160a01b038116600090815260016020908152604091829020805483518184028101840190945280845260609392830182828015620003c857602002820191906000526020600020905b81546001600160a01b03168152600190910190602001808311620003a9575b50505050509050919050565b60006001600160a01b03851615801590620003f757506001600160a01b03841615155b620004495760405162461bcd60e51b815260206004820152601860248201527f496e76616c696420667269656e6420616464726573736573000000000000000060448201526064015b60405180910390fd5b836001600160a01b0316856001600160a01b031603620004ac5760405162461bcd60e51b815260206004820152601960248201527f467269656e6473206d75737420626520646966666572656e7400000000000000604482015260640162000440565b428211620005075760405162461bcd60e51b815260206004820152602160248201527f5265736f6c7574696f6e2074696d65206d75737420626520696e2066757475726044820152606560f81b606482015260840162000440565b600080856001600160a01b0316876001600160a01b0316106200052c5785876200052f565b86865b6040516bffffffffffffffffffffffff19606084811b8216602084015283901b166034820152919350915060009060480160408051601f198184030181529181528151602092830120600081815260029093529120549091506001600160a01b031615620005ec5760405162461bcd60e51b815260206004820152602360248201527f4d61726b657420616c72656164792065786973747320666f722074686973207060448201526230b4b960e91b606482015260840162000440565b60007f0000000000000000000000000000000000000000000000000000000000000000338a8a8a8a604051620006229062000727565b620006339695949392919062000acf565b604051809103906000f08015801562000650573d6000803e3d6000fd5b5060008054600181810183557f290decd9548b62a8d60345a988386fc84ba6bc95484008f6362f93160ef3e56390910180546001600160a01b0385166001600160a01b03199182168117909255338085526020848152604080872080549687018155875281872090950180548416851790558886526002905293839020805490911682179055905192935083927fde2279380bc31df300e3f0a13e0c1b3ac1be2afc79062dbe025bdd7b2aae13889062000712908e908e908e90429062000b20565b60405180910390a39998505050505050505050565b611c2b8062000b6083390190565b80356001600160a01b03811681146200074d57600080fd5b919050565b600080604083850312156200076657600080fd5b620007718362000735565b946020939093013593505050565b6000602082840312156200079257600080fd5b5035919050565b60008060408385031215620007ad57600080fd5b620007b88362000735565b9150620007c86020840162000735565b90509250929050565b634e487b7160e01b600052604160045260246000fd5b604051601f8201601f1916810167ffffffffffffffff81118282101715620008135762000813620007d1565b604052919050565b600082601f8301126200082d57600080fd5b813567ffffffffffffffff8111156200084a576200084a620007d1565b6200085f601f8201601f1916602001620007e7565b8181528460208386010111156200087557600080fd5b816020850160208301376000918101602001919091529392505050565b60008060008060808587031215620008a957600080fd5b620008b48562000735565b9350620008c46020860162000735565b9250604085013567ffffffffffffffff811115620008e157600080fd5b620008ef878288016200081b565b949793965093946060013593505050565b600080600080600060a086880312156200091957600080fd5b620009248662000735565b945060206200093581880162000735565b9450604087013567ffffffffffffffff808211156200095357600080fd5b620009618a838b016200081b565b95506060890135945060808901359150808211156200097f57600080fd5b818901915089601f8301126200099457600080fd5b813581811115620009a957620009a9620007d1565b8060051b9150620009bc848301620007e7565b818152918301840191848101908c841115620009d757600080fd5b938501935b8385101562000a0057620009f08562000735565b82529385019390850190620009dc565b8096505050505050509295509295909350565b60006020828403121562000a2657600080fd5b62000a318262000735565b9392505050565b6020808252825182820181905260009190848201906040850190845b8181101562000a7b5783516001600160a01b03168352928401929184019160010162000a54565b50909695505050505050565b6000815180845260005b8181101562000aaf5760208185018101518683018201520162000a91565b506000602082860101526020601f19601f83011685010191505092915050565b6001600160a01b038781168252868116602083015285811660408301528416606082015260c06080820181905260009062000b0d9083018562000a87565b90508260a0830152979650505050505050565b6001600160a01b0385811682528416602082015260806040820181905260009062000b4e9083018562000a87565b90508260608301529594505050505056fe6101206040523480156200001257600080fd5b5060405162001c2b38038062001c2b8339810160408190526200003591620001b2565b60016000556001600160a01b038616620000965760405162461bcd60e51b815260206004820152601460248201527f496e76616c69642055534443206164647265737300000000000000000000000060448201526064015b60405180910390fd5b6001600160a01b038516620000e05760405162461bcd60e51b815260206004820152600f60248201526e24b73b30b634b21031b932b0ba37b960891b60448201526064016200008d565b6001600160a01b038416158015906200010157506001600160a01b03831615155b620001415760405162461bcd60e51b815260206004820152600f60248201526e496e76616c696420667269656e647360881b60448201526064016200008d565b6001600160a01b0380871660805285811660a05284811660c052831660e05260016200016e838262000369565b506101005250620004359350505050565b80516001600160a01b03811681146200019757600080fd5b919050565b634e487b7160e01b600052604160045260246000fd5b60008060008060008060c08789031215620001cc57600080fd5b620001d7876200017f565b95506020620001e88189016200017f565b9550620001f8604089016200017f565b945062000208606089016200017f565b60808901519094506001600160401b03808211156200022657600080fd5b818a0191508a601f8301126200023b57600080fd5b8151818111156200025057620002506200019c565b604051601f8201601f19908116603f011681019083821181831017156200027b576200027b6200019c565b816040528281528d868487010111156200029457600080fd5b600093505b82841015620002b8578484018601518185018701529285019262000299565b600086848301015280975050505050505060a087015190509295509295509295565b600181811c90821680620002ef57607f821691505b6020821081036200031057634e487b7160e01b600052602260045260246000fd5b50919050565b601f8211156200036457600081815260208120601f850160051c810160208610156200033f5750805b601f850160051c820191505b8181101562000360578281556001016200034b565b5050505b505050565b81516001600160401b038111156200038557620003856200019c565b6200039d81620003968454620002da565b8462000316565b602080601f831160018114620003d55760008415620003bc5750858301515b600019600386901b1c1916600185901b17855562000360565b600085815260208120601f198616915b828110156200040657888601518255948401946001909101908401620003e5565b5085821015620004255787850151600019600388901b60f8161c191681555b5050505050600190811b01905550565b60805160a05160c05160e0516101005161176b620004c06000396000818161050e0152818161064f01526111ac01526000818161037201526105800152600081816102b70152818161054e01526106be0152600081816101e401528181610b580152610ce801526000818161023d01528181610a660152818161101301526112c7015261176b6000f3fe608060405234801561001057600080fd5b50600436106101da5760003560e01c80637315ab5011610104578063b1bb1671116100a2578063d4a8a2c011610071578063d4a8a2c0146104ea578063de06e863146104f7578063f3e41e9014610509578063f7f74b221461053057600080fd5b8063b1bb167114610469578063b401faf11461047c578063c96adb0114610484578063d341d4ca146104e157600080fd5b80638cddab63116100de5780638cddab63146104135780638f1f186214610430578063922efc2e14610443578063a7f0bbf31461045657600080fd5b80637315ab50146103b257806375f4d677146103bb57806389a78f1a146103c357600080fd5b806327793f871161017c5780633f6fa6551161014b5780633f6fa6551461036057806344dec43d1461036d5780634a79d50c146103945780636c8d6e5a146103a957600080fd5b806327793f871461030f5780633482b6441461032157806335b185b214610334578063369fef0f1461033d57600080fd5b806313b63fce116101b857806313b63fce1461025f5780631a2ba9b8146102b25780631a5039d9146102d957806323256b2b146102eb57600080fd5b806302d05d3f146101df5780630bede3f81461022357806311eac85514610238575b600080fd5b6102067f000000000000000000000000000000000000000000000000000000000000000081565b6040516001600160a01b0390911681526020015b60405180910390f35b6102366102313660046114b1565b610543565b005b6102067f000000000000000000000000000000000000000000000000000000000000000081565b6008546005546040805160ff80851615158252610100850481161515602083015262010000850481161515928201929092526301000000909304811615156060840152161515608082015260a00161021a565b6102067f000000000000000000000000000000000000000000000000000000000000000081565b600a545b60405190815260200161021a565b6008546102ff906301000000900460ff1681565b604051901515815260200161021a565b6005546102ff90610100900460ff1681565b61020661032f3660046114d5565b610871565b6102dd60025481565b6102ff61034b3660046114ee565b60066020526000908152604090205460ff1681565b6005546102ff9060ff1681565b6102067f000000000000000000000000000000000000000000000000000000000000000081565b61039c61089b565b60405161021a9190611517565b6102dd60035481565b6102dd60045481565b6102dd610929565b6103f66103d13660046114ee565b6009602052600090815260409020805460019091015460ff8082169161010090041683565b60408051938452911515602084015215159082015260600161021a565b61041b61094d565b6040805192835260208301919091520161021a565b61023661043e3660046114d5565b6109a5565b6008546102ff9062010000900460ff1681565b6102366104643660046114ee565b610b4d565b610236610477366004611565565b610cdd565b610236610e44565b6103f66104923660046114ee565b6001600160a01b03166000908152600960209081526040918290208251606081018452815480825260019092015460ff8082161515948301859052610100909104161515930183905292909190565b6102dd60075481565b6008546102ff9060ff1681565b6008546102ff90610100900460ff1681565b6102dd7f000000000000000000000000000000000000000000000000000000000000000081565b61023661053e3660046115da565b6110eb565b336001600160a01b037f00000000000000000000000000000000000000000000000000000000000000001614806105a25750336001600160a01b037f000000000000000000000000000000000000000000000000000000000000000016145b6106075760405162461bcd60e51b815260206004820152602b60248201527f4f6e6c79207468652074776f2070656f706c6520696e2074686520646174652060448201526a63616e207265736f6c766560a81b60648201526084015b60405180910390fd5b60055460ff161561064d5760405162461bcd60e51b815260206004820152601060248201526f105b1c9958591e481c995cdbdb1d995960821b60448201526064016105fe565b7f00000000000000000000000000000000000000000000000000000000000000004210156106b45760405162461bcd60e51b8152602060048201526014602482015273546f6f206561726c7920746f207265736f6c766560601b60448201526064016105fe565b6001600160a01b037f000000000000000000000000000000000000000000000000000000000000000016330361074e5760085460ff161561072f5760405162461bcd60e51b8152602060048201526015602482015274119c9a595b990c48185b1c9958591e481d9bdd1959605a1b60448201526064016105fe565b60088054821515620100000262ff00ff199091161760011790556107bc565b600854610100900460ff161561079e5760405162461bcd60e51b8152602060048201526015602482015274119c9a595b990c88185b1c9958591e481d9bdd1959605a1b60448201526064016105fe565b6008805482151563010000000263ff00ff0019909116176101001790555b60085460ff1680156107d55750600854610100900460ff165b1561086e5760085460009062010000900460ff1680156107fe57506008546301000000900460ff165b1561080b5750600161080f565b5060005b600580548215156101000261ffff199091161760011790556040517ff680d0bd10cbd56c6089965028487f8751c5e7485ee076c45e809af3357408b39061086490839042909115158252602082015260400190565b60405180910390a1505b50565b600a818154811061088157600080fd5b6000918252602090912001546001600160a01b0316905081565b600180546108a890611606565b80601f01602080910402602001604051908101604052809291908181526020018280546108d490611606565b80156109215780601f106108f657610100808354040283529160200191610921565b820191906000526020600020905b81548152906001019060200180831161090457829003601f168201915b505050505081565b600060045460035460025461093e9190611656565b6109489190611656565b905090565b60008060006003546002546109629190611656565b90508060000361097757506032928392509050565b806002546064610987919061166f565b6109919190611686565b925061099e8360646116a8565b9150509091565b6109ad611479565b60055460ff16156109fa5760405162461bcd60e51b815260206004820152601760248201527613585c9ad95d08185b1c9958591e481c995cdbdb1d9959604a1b60448201526064016105fe565b60008111610a445760405162461bcd60e51b8152602060048201526017602482015276416d6f756e74206d75737420626520706f73697469766560481b60448201526064016105fe565b6040516323b872dd60e01b8152336004820152306024820152604481018290527f00000000000000000000000000000000000000000000000000000000000000006001600160a01b0316906323b872dd906064016020604051808303816000875af1158015610ab7573d6000803e3d6000fd5b505050506040513d601f19601f82011682018060405250810190610adb91906116bb565b610af75760405162461bcd60e51b81526004016105fe906116d8565b8060046000828254610b099190611656565b909155505060405181815233907f1af788e8930fe1fe947f9f58871226562d6b06794fd1fcdff3365ba84ee1752a9060200160405180910390a261086e6001600055565b336001600160a01b037f00000000000000000000000000000000000000000000000000000000000000001614610bc55760405162461bcd60e51b815260206004820152601c60248201527f4f6e6c792063726561746f722063616e2061646420626574746f72730000000060448201526064016105fe565b6001600160a01b038116610c145760405162461bcd60e51b8152602060048201526016602482015275496e76616c696420626574746f72206164647265737360501b60448201526064016105fe565b6001600160a01b03811660009081526006602052604090205460ff1615610c705760405162461bcd60e51b815260206004820152601060248201526f416c726561647920656c696769626c6560801b60448201526064016105fe565b6001600160a01b0381166000908152600660205260408120805460ff191660011790556007805491610ca183611706565b90915550506040516001600160a01b038216907f59f68fb2f168c9613b4a927b14f9bf0b06bb17a5647dc9c23c4e74f734e1ffca90600090a250565b336001600160a01b037f00000000000000000000000000000000000000000000000000000000000000001614610d555760405162461bcd60e51b815260206004820152601c60248201527f4f6e6c792063726561746f722063616e2061646420626574746f72730000000060448201526064016105fe565b60005b81811015610e3f576000838383818110610d7457610d7461171f565b9050602002016020810190610d8991906114ee565b90506001600160a01b03811615801590610dbc57506001600160a01b03811660009081526006602052604090205460ff16155b15610e2c576001600160a01b0381166000908152600660205260408120805460ff191660011790556007805491610df283611706565b90915550506040516001600160a01b038216907f59f68fb2f168c9613b4a927b14f9bf0b06bb17a5647dc9c23c4e74f734e1ffca90600090a25b5080610e3781611706565b915050610d58565b505050565b610e4c611479565b60055460ff16610e945760405162461bcd60e51b815260206004820152601360248201527213585c9ad95d081b9bdd081c995cdbdb1d9959606a1b60448201526064016105fe565b3360009081526009602052604090208054610ee15760405162461bcd60e51b815260206004820152600d60248201526c139bc818995d081c1b1858d959609a1b60448201526064016105fe565b6001810154610100900460ff1615610f2d5760405162461bcd60e51b815260206004820152600f60248201526e105b1c9958591e4818db185a5b5959608a1b60448201526064016105fe565b6005546000908190610100900460ff16610f4957600354610f4d565b6002545b600554909150600090610100900460ff16610f6a57600254610f6e565b6003545b905060006004548284610f819190611656565b610f8b9190611656565b905082600003610f9e5784549350610fe0565b600554600186015460ff610100909204821615159116151503610fdb5784548390610fca90839061166f565b610fd49190611686565b9350610fe0565b600093505b60018501805461ff00191661010017905583156110da5760405163a9059cbb60e01b8152336004820152602481018590527f00000000000000000000000000000000000000000000000000000000000000006001600160a01b03169063a9059cbb906044016020604051808303816000875af1158015611064573d6000803e3d6000fd5b505050506040513d601f19601f8201168201806040525081019061108891906116bb565b6110a45760405162461bcd60e51b81526004016105fe906116d8565b60405184815233907f1a31e733a172afcf46074b3106c17f0c298e226442682a03c1e99ce256139ec29060200160405180910390a25b50505050506110e96001600055565b565b6110f3611479565b3360009081526006602052604090205460ff1661115d5760405162461bcd60e51b815260206004820152602260248201527f4e6f7420656c696769626c6520746f20626574206f6e2074686973206d61726b604482015261195d60f21b60648201526084016105fe565b60055460ff16156111aa5760405162461bcd60e51b815260206004820152601760248201527613585c9ad95d08185b1c9958591e481c995cdbdb1d9959604a1b60448201526064016105fe565b7f000000000000000000000000000000000000000000000000000000000000000042106112095760405162461bcd60e51b815260206004820152600d60248201526c13585c9ad95d0818db1bdcd959609a1b60448201526064016105fe565b600081116112535760405162461bcd60e51b8152602060048201526017602482015276416d6f756e74206d75737420626520706f73697469766560481b60448201526064016105fe565b33600090815260096020526040902054156112a55760405162461bcd60e51b8152602060048201526012602482015271105b1c9958591e481c1b1858d9590818995d60721b60448201526064016105fe565b6040516323b872dd60e01b8152336004820152306024820152604481018290527f00000000000000000000000000000000000000000000000000000000000000006001600160a01b0316906323b872dd906064016020604051808303816000875af1158015611318573d6000803e3d6000fd5b505050506040513d601f19601f8201168201806040525081019061133c91906116bb565b6113585760405162461bcd60e51b81526004016105fe906116d8565b60408051606081018252828152831580156020808401918252600084860181815233808352600990935295812094518555915160019485018054965115156101000261ff00199215159290921661ffff199097169690961717909455600a8054938401815590527fc65a7bb8d6351c1cf70c95a316cc6a92839c986682d98bc35f958f4883f9d2a890910180546001600160a01b03191690921790915561141657806002600082825461140b9190611656565b9091555061142e9050565b80600360008282546114289190611656565b90915550505b6040805183151581526020810183905233917fe57fa5a543ebcdebf2a7d7102ac913e14454cec006468e43a6916e95bdfcea9e910160405180910390a26114756001600055565b5050565b60026000540361149c57604051633ee5aeb560e01b815260040160405180910390fd5b6002600055565b801515811461086e57600080fd5b6000602082840312156114c357600080fd5b81356114ce816114a3565b9392505050565b6000602082840312156114e757600080fd5b5035919050565b60006020828403121561150057600080fd5b81356001600160a01b03811681146114ce57600080fd5b600060208083528351808285015260005b8181101561154457858101830151858201604001528201611528565b506000604082860101526040601f19601f8301168501019250505092915050565b6000806020838503121561157857600080fd5b823567ffffffffffffffff8082111561159057600080fd5b818501915085601f8301126115a457600080fd5b8135818111156115b357600080fd5b8660208260051b85010111156115c857600080fd5b60209290920196919550909350505050565b600080604083850312156115ed57600080fd5b82356115f8816114a3565b946020939093013593505050565b600181811c9082168061161a57607f821691505b60208210810361163a57634e487b7160e01b600052602260045260246000fd5b50919050565b634e487b7160e01b600052601160045260246000fd5b8082018082111561166957611669611640565b92915050565b808202811582820484141761166957611669611640565b6000826116a357634e487b7160e01b600052601260045260246000fd5b500490565b8181038181111561166957611669611640565b6000602082840312156116cd57600080fd5b81516114ce816114a3565b6020808252601490820152731554d110c81d1c985b9cd9995c8819985a5b195960621b604082015260600190565b60006001820161171857611718611640565b5060010190565b634e487b7160e01b600052603260045260246000fdfea2646970667358221220dfd4c7a49b8da8df0beb3cec96b74a999f426c2a88c648708e6a4b2366bce13f64736f6c63430008140033a26469706673582212207a22b9946bcac9128a495da4a5b00cae13e8d9d00cca53dbf18fd1464b694c8464736f6c63430008140033",
  "linkReferences": {},
  "deployedLinkReferences": {}
}