{
  "_format": "hh-sol-artifact-1",
  "contractName": "MarketResolver",
  "sourceName": "contracts/MarketResolver.sol",
  "abi": [
    {
      "inputs": [],
      "stateMutability": "nonpayable",
      "type": "constructor"
    },
    {
      "anonymous": false,
      "inputs": [
        {
          "indexed": true,
          "internalType": "address",
          "name": "market",
          "type": "address"
        },
        {
          "indexed": false,
          "internalType": "bool",
          "name": "outcome",
          "type": "bool"
        }
      ],
      "name": "ResolutionExecuted",
      "type": "event"
    },
    {
      "anonymous": false,
      "inputs": [
        {
          "indexed": true,
          "internalType": "address",
          "name": "market",
          "type": "address"
        },
        {
          "indexed": true,
          "internalType": "address",
          "name": "resolver",
          "type": "address"
        },
        {
          "indexed": false,
          "internalType": "bool",
          "name": "outcome",
          "type": "bool"
        },
        {
          "indexed": false,
          "internalType": "string",
          "name": "evidence",
          "type": "string"
        }
      ],
      "name": "ResolutionProposed",
      "type": "event"
    },
    {
      "anonymous": false,
      "inputs": [
        {
          "indexed": true,
          "internalType": "address",
          "name": "resolver",
          "type": "address"
        }
      ],
      "name": "ResolverAuthorized",
      "type": "event"
    },
    {
      "anonymous": false,
      "inputs": [
        {
          "indexed": true,
          "internalType": "address",
          "name": "resolver",
          "type": "address"
        }
      ],
      "name": "ResolverRevoked",
      "type": "event"
    },
    {
      "inputs": [],
      "name": "admin",
      "outputs": [
        {
          "internalType": "address",
          "name": "",
          "type": "address"
        }
      ],
      "stateMutability": "view",
      "type": "function"
    },
    {
      "inputs": [
        {
          "internalType": "address",
          "name": "resolver",
          "type": "address"
        }
      ],
      "name": "authorizeResolver",
      "outputs": [],
      "stateMutability": "nonpayable",
      "type": "function"
    },
    {
      "inputs": [
        {
          "internalType": "address",
          "name": "",
          "type": "address"
        }
      ],
      "name": "authorizedResolvers",
      "outputs": [
        {
          "internalType": "bool",
          "name": "",
          "type": "bool"
        }
      ],
      "stateMutability": "view",
      "type": "function"
    },
    {
      "inputs": [
        {
          "internalType": "address",
          "name": "market",
          "type": "address"
        }
      ],
      "name": "executeResolution",
      "outputs": [],
      "stateMutability": "nonpayable",
      "type": "function"
    },
    {
      "inputs": [
        {
          "internalType": "address",
          "name": "market",
          "type": "address"
        }
      ],
      "name": "getResolution",
      "outputs": [
        {
          "internalType": "address",
          "name": "resolver",
          "type": "address"
        },
        {
          "internalType": "bool",
          "name": "outcome",
          "type": "bool"
        },
        {
          "internalType": "uint256",
          "name": "timestamp",
          "type": "uint256"
        },
        {
          "internalType": "string",
          "name": "evidence",
          "type": "string"
        },
        {
          "internalType": "bool",
          "name": "executed",
          "type": "bool"
        }
      ],
      "stateMutability": "view",
      "type": "function"
    },
    {
      "inputs": [
        {
          "internalType": "address",
          "name": "market",
          "type": "address"
        },
        {
          "internalType": "bool",
          "name": "outcome",
          "type": "bool"
        },
        {
          "internalType": "string",
          "name": "evidence",
          "type": "string"
        }
      ],
      "name": "proposeResolution",
      "outputs": [],
      "stateMutability": "nonpayable",
      "type": "function"
    },
    {
      "inputs": [
        {
          "internalType": "address",
          "name": "market",
          "type": "address"
        },
        {
          "internalType": "bool",
          "name": "outcome",
          "type": "bool"
        },
        {
          "internalType": "string",
          "name": "evidence",
          "type": "string"
        }
      ],
      "name": "quickResolve",
      "outputs": [],
      "stateMutability": "nonpayable",
      "type": "function"
    },
    {
      "inputs": [
        {
          "internalType": "address",
          "name": "",
          "type": "address"
        }
      ],
      "name": "resolutions",
      "outputs": [
        {
          "internalType": "address",
          "name": "resolver",
          "type": "address"
        },
        {
          "internalType": "bool",
          "name": "outcome",
          "type": "bool"
        },
        {
          "internalType": "uint256",
          "name": "timestamp",
          "type": "uint256"
        },
        {
          "internalType": "string",
          "name": "evidence",
          "type": "string"
        },
        {
          "internalType": "bool",
          "name": "executed",
          "type": "bool"
        }
      ],
      "stateMutability": "view",
      "type": "function"
    },
    {
      "inputs": [
        {
          "internalType": "address",
          "name": "resolver",
          "type": "address"
        }
      ],
      "name": "revokeResolver",
      "outputs": [],
      "stateMutability": "nonpayable",
      "type": "function"
    }
  ],
  "bytecode": "0x608060405234801561001057600080fd5b50600280546001600160a01b031916339081179091556000908152600160208190526040909120805460ff1916909117905561114a806100516000396000f3fe608060405234801561001057600080fd5b50600436106100935760003560e01c806369bfe1f51161006657806369bfe1f514610100578063808a2e8514610113578063af7b718a14610126578063d794d2d914610139578063f851a4401461016c57600080fd5b806336f4c0c6146100985780634a522b49146100ad5780635c0c78cd146100da57806362ee6a4c146100ed575b600080fd5b6100ab6100a6366004610d73565b610197565b005b6100c06100bb366004610e49565b610495565b6040516100d1959493929190610eb3565b60405180910390f35b6100ab6100e8366004610d73565b6105b9565b6100ab6100fb366004610e49565b610908565b6100c061010e366004610e49565b610998565b6100ab610121366004610e49565b610a61565b6100ab610134366004610e49565b610ca1565b61015c610147366004610e49565b60016020526000908152604090205460ff1681565b60405190151581526020016100d1565b60025461017f906001600160a01b031681565b6040516001600160a01b0390911681526020016100d1565b3360009081526001602052604090205460ff16806101bf57506002546001600160a01b031633145b6101e45760405162461bcd60e51b81526004016101db90610ef6565b60405180910390fd5b6001600160a01b03831661022b5760405162461bcd60e51b815260206004820152600e60248201526d125b9d985b1a59081b585c9ad95d60921b60448201526064016101db565b6001600160a01b0383811660009081526020819052604090205416156102865760405162461bcd60e51b815260206004820152601060248201526f105b1c9958591e481c1c9bdc1bdcd95960821b60448201526064016101db565b6000839050806001600160a01b0316633f6fa6556040518163ffffffff1660e01b8152600401602060405180830381865afa1580156102c9573d6000803e3d6000fd5b505050506040513d601f19601f820116820180604052508101906102ed9190610f1e565b1561030a5760405162461bcd60e51b81526004016101db90610f3b565b806001600160a01b031663f3e41e906040518163ffffffff1660e01b8152600401602060405180830381865afa158015610348573d6000803e3d6000fd5b505050506040513d601f19601f8201168201806040525081019061036c9190610f72565b4210156103a75760405162461bcd60e51b8152602060048201526009602482015268546f6f206561726c7960b81b60448201526064016101db565b6040805160a081018252338152841515602080830191825242838501908152606084018781526000608086018190526001600160a01b038b8116825293819052959095208451815494511515600160a01b026001600160a81b0319909516931692909217929092178155905160018201559151909190600282019061042c9082611014565b50608091909101516003909101805460ff191691151591909117905560405133906001600160a01b038616907fc0308f099485793651e052ad904fd4ce1cbdedc6c4d632b210b22508b65cccce9061048790879087906110d4565b60405180910390a350505050565b6001600160a01b03818116600090815260208181526040808320815160a08101835281549586168152600160a01b90950460ff1615159285019290925260018201549084015260028101805492938493849360609385938493909291868401916104fe90610f8b565b80601f016020809104026020016040519081016040528092919081815260200182805461052a90610f8b565b80156105775780601f1061054c57610100808354040283529160200191610577565b820191906000526020600020905b81548152906001019060200180831161055a57829003601f168201915b50505091835250506003919091015460ff16151560209182015281519082015160408301516060840151608090940151929b919a509850919650945092505050565b3360009081526001602052604090205460ff16806105e157506002546001600160a01b031633145b6105fd5760405162461bcd60e51b81526004016101db90610ef6565b6001600160a01b0383166106445760405162461bcd60e51b815260206004820152600e60248201526d125b9d985b1a59081b585c9ad95d60921b60448201526064016101db565b6000839050806001600160a01b0316633f6fa6556040518163ffffffff1660e01b8152600401602060405180830381865afa158015610687573d6000803e3d6000fd5b505050506040513d601f19601f820116820180604052508101906106ab9190610f1e565b156106c85760405162461bcd60e51b81526004016101db90610f3b565b806001600160a01b03166302d05d3f6040518163ffffffff1660e01b8152600401602060405180830381865afa158015610706573d6000803e3d6000fd5b505050506040513d601f19601f8201168201806040525081019061072a91906110f7565b6001600160a01b0316336001600160a01b0316148061075857503360009081526001602052604090205460ff165b6107745760405162461bcd60e51b81526004016101db90610ef6565b6040805160a081018252338152841515602080830191825242838501908152606084018781526001608086018190526001600160a01b038b8116600090815294859052969093208551815495511515600160a01b026001600160a81b031990961697169690961793909317855551908401555190919060028201906107f99082611014565b50608091909101516003909101805460ff191691151591909117905560405163017dbc7f60e31b815283151560048201526001600160a01b03821690630bede3f890602401600060405180830381600087803b15801561085857600080fd5b505af115801561086c573d6000803e3d6000fd5b50505050336001600160a01b0316846001600160a01b03167fc0308f099485793651e052ad904fd4ce1cbdedc6c4d632b210b22508b65cccce85856040516108b59291906110d4565b60405180910390a3836001600160a01b03167f6adb9ab66eac3bfc5a69c9c60d17d44c866c2e49f65ec0bb085df32b19b8a036846040516108fa911515815260200190565b60405180910390a250505050565b6002546001600160a01b0316331461094f5760405162461bcd60e51b815260206004820152600a60248201526927b7363c9030b236b4b760b11b60448201526064016101db565b6001600160a01b038116600081815260016020526040808220805460ff19169055517f6cc76de175eb7c3679f8d4c3529e23883784a40e1f9d7f54e8a9f97115aab3479190a250565b6000602081905290815260409020805460018201546002830180546001600160a01b03841694600160a01b90940460ff169391906109d590610f8b565b80601f0160208091040260200160405190810160405280929190818152602001828054610a0190610f8b565b8015610a4e5780601f10610a2357610100808354040283529160200191610a4e565b820191906000526020600020905b815481529060010190602001808311610a3157829003601f168201915b5050506003909301549192505060ff1685565b3360009081526001602052604090205460ff1680610a8957506002546001600160a01b031633145b610aa55760405162461bcd60e51b81526004016101db90610ef6565b6001600160a01b0380821660009081526020819052604090208054909116610b085760405162461bcd60e51b8152602060048201526016602482015275139bc81c995cdbdb1d5d1a5bdb881c1c9bdc1bdcd95960521b60448201526064016101db565b600381015460ff1615610b505760405162461bcd60e51b815260206004820152601060248201526f105b1c9958591e48195e1958dd5d195960821b60448201526064016101db565b6000829050806001600160a01b0316633f6fa6556040518163ffffffff1660e01b8152600401602060405180830381865afa158015610b93573d6000803e3d6000fd5b505050506040513d601f19601f82011682018060405250810190610bb79190610f1e565b15610bd45760405162461bcd60e51b81526004016101db90610f3b565b815460405163017dbc7f60e31b8152600160a01b90910460ff16151560048201526001600160a01b03821690630bede3f890602401600060405180830381600087803b158015610c2357600080fd5b505af1158015610c37573d6000803e3d6000fd5b50505060038301805460ff191660011790555081546040516001600160a01b038516917f6adb9ab66eac3bfc5a69c9c60d17d44c866c2e49f65ec0bb085df32b19b8a03691610c9491600160a01b900460ff161515815260200190565b60405180910390a2505050565b6002546001600160a01b03163314610ce85760405162461bcd60e51b815260206004820152600a60248201526927b7363c9030b236b4b760b11b60448201526064016101db565b6001600160a01b0381166000818152600160208190526040808320805460ff1916909217909155517f2c3901e3fb770eb03de86a9d260bd78efb1582f427318c892172df56e31981199190a250565b6001600160a01b0381168114610d4c57600080fd5b50565b8015158114610d4c57600080fd5b634e487b7160e01b600052604160045260246000fd5b600080600060608486031215610d8857600080fd5b8335610d9381610d37565b92506020840135610da381610d4f565b9150604084013567ffffffffffffffff80821115610dc057600080fd5b818601915086601f830112610dd457600080fd5b813581811115610de657610de6610d5d565b604051601f8201601f19908116603f01168101908382118183101715610e0e57610e0e610d5d565b81604052828152896020848701011115610e2757600080fd5b8260208601602083013760006020848301015280955050505050509250925092565b600060208284031215610e5b57600080fd5b8135610e6681610d37565b9392505050565b6000815180845260005b81811015610e9357602081850181015186830182015201610e77565b506000602082860101526020601f19601f83011685010191505092915050565b60018060a01b0386168152841515602082015283604082015260a060608201526000610ee260a0830185610e6d565b905082151560808301529695505050505050565b6020808252600e908201526d139bdd08185d5d1a1bdc9a5e995960921b604082015260600190565b600060208284031215610f3057600080fd5b8151610e6681610d4f565b60208082526017908201527f4d61726b657420616c7265616479207265736f6c766564000000000000000000604082015260600190565b600060208284031215610f8457600080fd5b5051919050565b600181811c90821680610f9f57607f821691505b602082108103610fbf57634e487b7160e01b600052602260045260246000fd5b50919050565b601f82111561100f57600081815260208120601f850160051c81016020861015610fec5750805b601f850160051c820191505b8181101561100b57828155600101610ff8565b5050505b505050565b815167ffffffffffffffff81111561102e5761102e610d5d565b6110428161103c8454610f8b565b84610fc5565b602080601f831160018114611077576000841561105f5750858301515b600019600386901b1c1916600185901b17855561100b565b600085815260208120601f198616915b828110156110a657888601518255948401946001909101908401611087565b50858210156110c45787850151600019600388901b60f8161c191681555b5050505050600190811b01905550565b82151581526040602082015260006110ef6040830184610e6d565b949350505050565b60006020828403121561110957600080fd5b8151610e6681610d3756fea264697066735822122054a57bfb81f10bc6c200666350da5e6dfc079f434dbac779e04f4c216383445d64736f6c63430008140033",
  "linkReferences": {},
  "deployedLinkReferences": {}
}